:03000000020100FA
:0400030012030032B2
:040013001201503254
:100100007C007D007E0012052074D012054074072B
:10011000120540741012054012053075A8857588C7
:040120000502026072
:10015000BE050A7E00120400D2A8D2B52230B453E4
:10016000BE010CEC54F02410B430027400FC22BE2A
:10017000021AEC54F0FBEC540F04BB2007B4040942
:1001800074008005B40A0274004BFC22BE0311ED1A
:10019000540FFBED54F02410B4600274004BFD22A8
:1001A000BE040FED54F0FBED540F04B40A027400CA
:0901B0004BFD220EC2A8C2B522CB
:10026000ECC454034410F5A01202F0BE010280F069
:10027000EC540F4420F5A01202F0BE020280E1ED22
:10028000C4540F4440F5A01202F0BE030280D1ED29
:0B029000540F4480F5A01202F080C55E
:0502F0007A05DAFE2290
:1003000012052074D0120540740112054012053008
:1003100012052074D1120540120620FD12060012AB
:0B0320000620FC120610120530E92236
:1004000012052074D01205407400120540740012C9
:100410000540ED120540EC448012054012053022E3
:09051000C296D297D296C297223E
:07052000D296C297C2962299
:09053000C296C297D296D297221E
:10054000F97F08C296339297D296DFF7C296D29778
:08055000D296A297C296E9229F
:09060000C297D296C296D297224D
:09061000D297D296C296D296222E
:10062000F97F08C296D296A29733DFF7C296D29787
:0106300022A7
:00000001FF
